:100000000A128A11F52F00308A000408840A820738
:080010000034FF340034033416
:100876008316031308148814080064008001840A90
:100886000406031900340406412C831203130510D1
:100896008511831603130514851501309F00080082
:1008A60083160313871781309900243098009030FF
:1008B60083120313980008000930F0000030F1009D
:1008C60083160313891009107008840083137118A6
:1008D600831703308000080083120313D2004F08E9
:1008E600D1005108A1005008D1005108C0002130A4
:1008F600D1005108FC0052080A128A11032508008B
:10090600F2000930F3000030F4007308840083130A
:1009160074188317720880004130F100EE30F00041
:10092600F00B932CF10B932C0000730884008313B7
:100936007418831703308000080083160313871189
:1009460087120716071107108710831203139412D4
:1009560083160313941383120313141283160313BB
:100966001413831203139411141194101410071501
:100976000714871494160800FB01FC0181308312CA
:1009860003139F001F151F19C62C1E08F8007808B0
:10099600F900831603131E08F8007808FA00793068
:1009A600F8007808F0007B300A128A1133257C089B
:1009B600F7007B08F6000800F2007008031908002B
:1009C600831203132008223E840083138001800AC9
:1009D6000130F1007108A007720884000008F100D8
:1009E6002008223E8400710880000130F100710861
:1009F600F2070130F1007108A0070130F002E02C87
:100A060083120313CE00F001F00A4E080A128A116F
:100A160007260A128A117C08FD007D08F000831261
:100A260003134E080A128A1107260A128A117C0835
:100A3600013EFD007D08F600831203134E080A12DC
:100A46008A1169250A128A117C081F3EFD007D085D
:100A5600F000831203134E080A128A1107260800B3
:100A6600F500700884000008F100F20175088400A2
:100A760071088000840A72088000750884000230BC
:100A86000310800D840A800D8403FF3E031D432D51
:100A9600033084000A128A1103200A128A11F10017
:100AA600700A84000008F20006300310F20CFF3EC4
:100AB600031D582D72087105F300F40175088400B2
:100AC60073088004840A740880040800FB00FA0195
:100AD60076088400831300080319A62D760884007F
:100AE60083130008F7007708F8007608F700770800
:100AF600F0007B080A128A1107260A128A110130B1
:100B0600F7007708F6070130F7007708FA07F901CA
:100B16007808790203186B2D7608F7007708F0003D
:100B26007B080A128A1107260A128A110130F70079
:100B36007708F6070130F7007708FA070130F70063
:100B46007708F9078B2D1E307A0203180800712DDD
:100B5600F400E830F2000330F300831203131308A5
:100B6600F0007008F100C02D0819D22DB72D081815
:100B7600D22DBA2D8818D22DBD2D7408023A03192C
:100B8600B72D013A0319BA2D073A0319BD2DD22DF7
:100B9600D22D0711DD2D0710DD2D8710DD2D7408F0
:100BA600023A0319CC2D013A0319CE2D073A03193F
:100BB600D02DDD2D9301831603131418F92D720819
:100BC600730403190800E72DE82D00000130F20236
:100BD6000030031CF303F302DE2D83120715042EE7
:100BE60083120714042E83128714042E7408023A03
:100BF6000319F02D013A0319F32D073A0319F62DBF
:100C0600042E831213080800F500E830F3000330C1
:100C1600F400831203131308F1007108F2001C2E6E
:100C260008192E2E132E08182E2E162E88182E2E44
:100C3600192E7508023A0319132E013A0319162EB6
:100C4600073A0319192E2E2E2E2E0711392E0710AC
:100C5600392E8710392E7508023A0319282E013AC3
:100C660003192A2E073A03192C2E392E70089300E1
:100C7600831603131418562E7308740403190800F8
:100C8600442E452E00000130F3020030031CF4030D
:100C9600F4023B2E83120715612E83120714612E70
:100CA60083128714612E7508023A03194D2E013AF4
:100CB6000319502E073A0319532E612E8312130877
:100CC600F1007108F2000800F4000230F300730826
:100CD600F00074080A128A11DF240A128A110230FF
:100CE600F3007308F0007408023E0A128A11DF242A
:100CF6000A128A110230F3007308F0007408043EE9
:100D06000A128A11DF240A128A110230F3007308CC
:100D1600F0007408063E0A128A11DF240A128A11AC
:100D26000230F3007308F0007408083E0A128A11B4
:100D3600DF240A128A110230F3007308F0007408E7
:100D46000A3E0A128A11DF240A128A118312031339
:100D56002008223E840083138001800A0130F300BC
:100D66007308A0072008223E840000304D18013089
:100D760080000130F3007308A0072008223E84009B
:100D86008001800A0130F3007308A0072008223E84
:100D960084000030CD18013080000130F300730864
:100DA600A00708000A128A11A0240A128A11043028
:100DB6000A128A11AB250A128A11FD007D088312D8
:100DC6000313C10004300A128A11AB250A128A11D4
:100DD600FD007D0883120313C20004300A128A1133
:100DE600AB250A128A11FD007D0883120313C30086
:100DF60004300A128A11AB250A128A11FD007D08F9
:100E060083120313C40004300A128A11AB250A1296
:100E16008A11FD007D0883120313C50004300A12EF
:100E26008A11AB250A128A11FD007D08831203136D
:100E3600C60004300A128A11AB250A128A11FD0077
:100E46007D0883120313C70004300A128A11AB25EA
:100E56000A128A11FD007D0883120313C8000430AC
:100E66000A128A11AB250A128A11FD007D08831227
:100E76000313C90004300A128A11AB250A128A111B
:100E8600FD007D0883120313CA000A128A11BF24CB
:100E9600770883120313CF007608CE004F08FD00B3
:100EA6007D08CB004E08FD007D08CC004D14CD1406
:100EB60008008316031388138312031388130A1278
:100EC6008A115F240A128A110A128A113B240A1215
:100ED6008A110A128A1153240A128A110A128A11D5
:100EE60048240A128A11831203130818802F05302A
:100EF6000A128A1183240A128A118312031388188C
:100F06008A2F06300A128A1183240A128A11831242
:100F1600031388171A30D5005E30D4008630D3000C
:100F2600D30B932FD40B932FD50B932F0000831243
:100F3600031388131A30D5005E30D4008630D300F0
:100F4600D30BA32FD40BA32FD50BA32F00008A2FCF
:100F56008312031388171A30D5005E30D40086300A
:100F6600D300D30BB42FD40BB42FD50BB42F000062
:100F76000A128A11D5260A128A1141300A128A11DA
:100F860067260A128A1183120313CF01CF0A103083
:100F9600D3005308D00003300A128A116F240A12B4
:100FA6008A118312031388131A30D5005E30D400D9
:100FB6008630D300D30BDD2FD40BDD2FD50BDD2FE1
:100FC6000000831203130818AB2FFE30D500A8309B
:100FD600D4006130D300D30BEE2FD40BEE2FD50BFC
:100FE600EE2FAB2F8313203084004E300A128A1165
:0A0FF600402483010A128A115C2FC7
:02400E0072FF3F
:00000001FF
