:100000000A128A11F52F00308A000408840A820738
:080010000034FF340034033416
:1004340083160313081488140800F00083120313AE
:100444000C1E202A70089900080064008001840AA8
:100454000406031900340406282A83120313051022
:100464008511831603130514851501309F000800B8
:100474008316031387178130990024309800903035
:100484008312031398000800013083120313D4006D
:100494000030D500D601D60AD701D70A0A128A112C
:1004A4008D2508000930F0000030F1008316031395
:1004B400891009107008840083137118831703309E
:1004C40080000800F001F00A04300A128A113E2567
:1004D4000A128A11831203138818080006300A12BC
:1004E4008A11A522080083120313D2004F08D100F9
:1004F4005108A1005008D1005108C0002130D1009A
:100504005108FC0052080A128A11DD230800F00188
:10051400F101922A0130F0070318F10A0030F107C3
:10052400831203138C1AA12A7108803AFF008030C9
:100534007F02031D9F2A65307002031C8C2A8312DC
:1005440003131A080800F2000930F3000030F40025
:100554007308840083137418831772088000413071
:10056400F100EE30F000F00BB52AF10BB52A0000D3
:100574007308840083137418831703308000080001
:10058400F701F001F00A03300A128A113E250A121B
:100594008A1103300A128A11F3240A128A11F6000E
:1005A4007608F7007708031D770A031DDD2A053056
:1005B4000A128A11A52277080800831603138711EB
:1005C40087120716071087108312031394128316D9
:1005D40003139413831203131412831603131413B3
:1005E4008312031394111411941014100714871414
:1005F40094160800FB01FC018130831203139F0051
:100604001F151F19032B1E08F8007808F90083161C
:1006140003131E08F8007808FA007930F800780807
:10062400F0007B300A128A110D247C08F7007B0845
:10063400F6000800F401F501701C262B7208F4077B
:100644000318F50A7308F50701300310F20DF30DD2
:10065400FF3E031D272B01300310F10CF00CFF3E6D
:10066400031D2E2B70087104031D1E2B7508F10049
:100674007408F00008000A128A1189220A128A11E9
:1006840083120313DD005D08DE000A128A11892239
:100694000A128A1183120313DD005D08DF005E3045
:1006A400D4000030D5000230DD005D08D600D7014B
:1006B400D70A0A128A118D25080072080319080046
:1006C400831203132008223E840083138001800ACE
:1006D4000130F3007308A007700884008317711CAD
:1006E40083130008F3002008223E84007308831358
:1006F40080000130F0070318F10A0030F1070130DF
:10070400F3007308A0070130F2025F2B0230F300FC
:100714007208840073088000700884008317711CB9
:1007240083130008F300840A0008F4007408F50039
:10073400720A840075088000013084000A128A114C
:100744000320F300700884008317711C83130008CE
:100754007305F4007208023E8400740880000800E7
:10076400700884008317711C83130008F500840A41
:100774000008F600840A0008F7000430F300720849
:100784008400730883138000F9010430790203188C
:1007940008007908753E84000008F3007908013EDA
:1007A4007207F40074088400730880000130F300B9
:1007B4007308F907C72B83120313CE00F001F00A64
:1007C4004E080A128A113E250A128A117C08FD007D
:1007D4007D08F000831203134E080A128A113E2585
:1007E4000A128A117C08013EFD007D08F60083127E
:1007F40003134E080A128A11B1240A128A117C08C2
:100804001F3EFD007D08F000831203134E080A12F8
:100814008A113E250800F500700884000008F100E4
:10082400F2017508840071088000840A720880004F
:100834007508840002300310800D840A800D84033F
:10084400FF3E031D1D2C033084000A128A1103206D
:100854000A128A11F100700A84000008F2000630BE
:100864000310F20CFF3E031D322C72087105F300D5
:10087400F4017508840073088004840A74088004F1
:1008840008007C08031908007A08F0007B08F100CE
:100894004E30FD007D08F2000A128A11B2230A12BA
:1008A4008A110330FA070318FB0A0030FB0783128E
:1008B4000313D301053053020318772C53084E3E1B
:1008C400840083130008FD002008223E84007D0874
:1008D40080000130FD007D08A0070130FD007D0887
:1008E400D30705305302031C602C0130FC02432C57
:1008F4007808031908007608F0007708F1007A30C8
:10090400F9007908F2000A128A1188230A128A115E
:100914000230F6070318F70A0030F707FD01033029
:100924007D020318AE2C7D087A3E84000008F9008D
:10093400831203132008223E840079088313800065
:100944000130F9007908A0070130F9007908FD07A2
:1009540003307D02031C952C0130F8027A2CFB0035
:10096400FA0176088400831300080319EE2C760834
:10097400840083130008F7007708F8007608F7006E
:100984007708F0007B080A128A113E250A128A11A0
:100994000130F7007708F6070130F7007708FA0707
:1009A400F901780879020318B32C7608F700770860
:1009B400F0007B080A128A113E250A128A110130BE
:1009C400F7007708F6070130F7007708FA070130D7
:1009D400F7007708F907D32C1E307A0203180800B1
:1009E400B92CF400E830F2000330F300831203134F
:1009F4001308F0007008F100052D0818122DFF2CC3
:100A04008818122D022D7408033A0319FF2C073A93
:100A14000319022D122D122D07101A2D87101A2DCD
:100A24007408033A03190E2D073A0319102D1A2DD1
:100A34009301831603131418332D720873040319D6
:100A44000800242D252D00000130F2020030031C83
:100A5400F303F3021B2D831207143B2D8312871417
:100A64003B2D7408033A03192D2D073A0319302D31
:100A74003B2D831213080800F500E830F30003301F
:100A8400F400831203131308F1007108F200502DCF
:100A940008185D2D4A2D88185D2D4D2D7508033AD3
:100AA40003194A2D073A03194D2D5D2D5D2D0710AD
:100AB400652D8710652D7508033A0319592D073ADA
:100AC40003195B2D652D7008930083160313141806
:100AD4007F2D7308740403190800702D712D000014
:100AE4000130F3020030031CF403F402672D831277
:100AF4000714872D83128714872D7508033A031969
:100B0400792D073A03197C2D872D83121308F100E0
:100B14007108F2000800831203135708013EF00025
:100B2400003003180130F1005608D800D9015808E4
:100B3400F2005908F3000A128A111C230A128A11BE
:100B44008312031320087007DA0071080318710A6E
:100B5400DB00DA09DB09DA0A0319DB0A1E305A075B
:100B64005B0803185B0A003EDC00DC1B0800E22D76
:100B74005408F0005508F1005608D8005808F2004F
:100B84000A128A115F230800831203135408F60023
:100B94005508F7005608D8005808F8000A128A11B8
:100BA4007A240800831203135408FA005508FB0042
:100BB4005608D8005808FC000A128A114324080079
:100BC400831203135708013A0319BA2D033A031980
:100BD400C62D063A0319D42DEF2D080083160313EE
:100BE40088138312031388138316031308138312C1
:100BF4000313081383160313081183120313081530
:100C04000A128A1154220A128A110A128A111A2209
:100C14000A128A110A128A112F220A128A110A123E
:100C24008A11DF220A128A110A128A113A220A123E
:100C34008A111A3083120313E6005E30E500863011
:100C4400E400E40B232EE50B232EE60B232E0000F9
:100C54008312031388170330E6008A30E500563008
:100C6400E400E40B332EE50B332EE60B332E3A2E41
:100C74000A128A11C2220A128A1183120313E4008F
:100C84006408E7000A128A1164220A128A11831284
:100C9400031367080A128A1169270A128A11831238
:100CA400031388130330E6008A30E5005630E4006D
:100CB400E40B5A2EE50B5A2EE60B5A2E612E2A2EE1
:100CC400F5007508F0000030F1000230F4007408FB
:100CD400F2000A128A115F230A128A117508023E71
:100CE400F0000030F1000230F4007408F2000A123F
:100CF4008A115F230A128A117508043EF00000303D
:100D0400F1000230F4007408F2000A128A115F2321
:100D14000A128A117508063EF0000030F100023014
:100D2400F4007408F2000A128A115F230A128A116D
:100D34007508083EF0000030F1000230F400740839
:100D4400F2000A128A115F230A128A1175080A3EF8
:100D5400F0000030F1000230F4007408F2000A12CE
:100D64008A115F230A128A11831203132008223E78
:100D7400840083138001800A0130F4007408A00702
:100D84002008223E840000304D18013080000130DC
:100D9400F4007408A0072008223E84008001800A21
:100DA4000130F4007408A0072008223E84000030BB
:100DB400CD18013080000130F4007408A007080049
:100DC4000A128A11DF220A128A1104300A128A11C5
:100DD400F3240A128A11FD007D0883120313C10053
:100DE40004300A128A11F3240A128A11FD007D08C4
:100DF40083120313C20004300A128A11F3240A1264
:100E04008A11FD007D0883120313C30004300A1203
:100E14008A11F3240A128A11FD007D088312031338
:100E2400C40004300A128A11F3240A128A11FD0044
:100E34007D0883120313C50004300A128A11F324B7
:100E44000A128A11FD007D0883120313C6000430C0
:100E54000A128A11F3240A128A11FD007D088312F2
:100E64000313C70004300A128A11F3240A128A11E8
:100E7400FD007D0883120313C80004300A128A118E
:100E8400F3240A128A11FD007D0883120313C9009A
:100E940004300A128A11F3240A128A11FD007D0813
:100EA40083120313CA000A128A11FC2277088312E0
:100EB4000313CF007608CE004F08FD007D08CB0059
:100EC4004E08FD007D08CC004D14CD14080083129B
:100ED4000313E300E72F0A128A11E2260A128A1189
:100EE40041300A128A1162260A128A1111308312C1
:100EF4000313E0006008F00003300A128A113E2553
:100F04000A128A1183120313CF01CF0A1030E000B2
:100F14006008D00003300A128A11752208000817ED
:100F24000330E2008A30E1005630E000E00B982FF5
:100F3400E10B982FE20B982F9F2F831203130813B2
:100F44000330E2008A30E1005630E000E00BA82FC5
:100F5400E10BA82FE20BA82FAF2F0A128A11462209
:100F64000A128A11113083120313E0006008F000A2
:100F740003300A128A113E250A128A1183120313BE
:100F8400CF01CF0A1030E0006008D00003300A120D
:100F94008A117522080001300A128A111F220A12CE
:100FA4008A110A128A113D230A128A11023083120D
:100FB4000313E0006008CF001030E1006108D000A6
:100FC40003300A128A11752208008312031363087E
:100FD400013A0319912F033A0319CD2F013A03194A
:100FE4006D2FF42F08008313203084004E300A1232
:0C0FF4008A11272283010A128A11F02DB5
:02400E0072FF3F
:00000001FF
