:100000000A128A11F52F00308A000408840A820738
:080010000034FF340034033416
:1004400083160313081488140800F00083120313A2
:100450000C1E262A70089900080064008001840A96
:1004600004060319003404062E2A83120313051010
:100470008511831603130514851501309F000800AC
:100480008316031387178130990024309800903029
:100490008312031398000800013083120313D40061
:1004A0000030D500D601D60AD701D70A0A128A1120
:1004B000932508000930F0000030F1008316031383
:1004C0008910091070088400831371188317033092
:1004D00080000800F001F00A04300A128A11442555
:1004E0000A128A11831203138818080006300A12B0
:1004F0008A11AB22080083120313D2004F08D100E7
:100500005108A1005008D1005108C0002130D1008D
:100510005108FC0052080A128A11E3230800F00176
:10052000F101982A0130F0070318F10A0030F107B1
:10053000831203138C1AA72A7108803AFF008030B7
:100540007F02031DA52A65307002031C922A8312C4
:1005500003131A080800F2000930F3000030F40019
:100560007308840083137418831772088000413065
:10057000F100EE30F000F00BBB2AF10BBB2A0000BB
:1005800073088400831374188317033080000800F5
:10059000F701F001F00A03300A128A1144250A1209
:1005A0008A1103300A128A11F9240A128A11F600FC
:1005B0007608F7007708031D770A031DE32A053044
:1005C0000A128A11AB2277080800831603138711D9
:1005D00087120716071087108312031394128316CD
:1005E00003139413831203131412831603131413A7
:1005F0008312031394111411941014100714871408
:1006000094160800FB01FC018130831203139F0044
:100610001F151F19092B1E08F8007808F90083160A
:1006200003131E08F8007808FA007930F8007808FB
:10063000F0007B300A128A1113247C08F7007B0833
:10064000F6000800F401F501701C2C2B7208F40769
:100650000318F50A7308F50701300310F20DF30DC6
:10066000FF3E031D2D2B01300310F10CF00CFF3E5B
:10067000031D342B70087104031D242B7508F10031
:100680007408F00008000A128A118F220A128A11D7
:1006900083120313DD005D08DE000A128A118F2227
:1006A0000A128A1183120313DD005D08DF005E3039
:1006B000D4000030D5000230DD005D08D600D7013F
:1006C000D70A0A128A119325080072080319080034
:1006D000831203132008223E840083138001800AC2
:1006E0000130F3007308A007700884008317711CA1
:1006F00083130008F3002008223E8400730883134C
:1007000080000130F0070318F10A0030F1070130D2
:10071000F3007308A0070130F202652B0230F300EA
:100720007208840073088000700884008317711CAD
:1007300083130008F300840A0008F4007408F5002D
:10074000720A840075088000013084000A128A1140
:100750000320F300700884008317711C83130008C2
:100760007305F4007208023E8400740880000800DB
:10077000700884008317711C83130008F500840A35
:100780000008F600840A0008F7000430F30072083D
:100790008400730883138000F90104307902031880
:1007A00008007908753E84000008F3007908013ECE
:1007B0007207F40074088400730880000130F300AD
:1007C0007308F907CD2B83120313CE00F001F00A52
:1007D0004E080A128A1144250A128A117C08FD006B
:1007E0007D08F000831203134E080A128A11442573
:1007F0000A128A117C08013EFD007D08F600831272
:1008000003134E080A128A11B7240A128A117C08AF
:100810001F3EFD007D08F000831203134E080A12EC
:100820008A1144250800F500700884000008F100D2
:10083000F2017508840071088000840A7208800043
:100840007508840002300310800D840A800D840333
:10085000FF3E031D232C033084000A128A1103205B
:100860000A128A11F100700A84000008F2000630B2
:100870000310F20CFF3E031D382C72087105F300C3
:10088000F4017508840073088004840A74088004E5
:1008900008007C08031908007A08F0007B08F100C2
:1008A0004E30FD007D08F2000A128A11B8230A12A8
:1008B0008A110330FA070318FB0A0030FB07831282
:1008C0000313D3010530530203187D2C53084E3E09
:1008D000840083130008FD002008223E84007D0868
:1008E00080000130FD007D08A0070130FD007D087B
:1008F000D30705305302031C662C0130FC02492C3F
:100900007808031908007608F0007708F1007A30BB
:10091000F9007908F2000A128A118E230A128A114C
:100920000230F6070318F70A0030F707FD0103301D
:100930007D020318B42C7D087A3E84000008F9007B
:10094000831203132008223E840079088313800059
:100950000130F9007908A0070130F9007908FD0796
:1009600003307D02031C9B2C0130F802802CFB001D
:10097000FA0176088400831300080319F42C760822
:10098000840083130008F7007708F8007608F70062
:100990007708F0007B080A128A1144250A128A118E
:1009A0000130F7007708F6070130F7007708FA07FB
:1009B000F901780879020318B92C7608F70077084E
:1009C000F0007B080A128A1144250A128A110130AC
:1009D000F7007708F6070130F7007708FA070130CB
:1009E000F7007708F907D92C1E307A02031808009F
:1009F000BF2CF400E830F2000330F300831203133D
:100A00001308F0007008F1000B2D0818182D052DA3
:100A10008818182D082D7408033A0319052D073A74
:100A20000319082D182D182D0710202D8710202DA3
:100A30007408033A0319142D073A0319162D202DB3
:100A40009301831603131418392D720873040319C4
:100A500008002A2D2B2D00000130F2020030031C6B
:100A6000F303F302212D83120714412D83128714FF
:100A7000412D7408033A0319332D073A0319362D13
:100A8000412D831213080800F500E830F30003300D
:100A9000F400831203131308F1007108F200562DBD
:100AA0000818632D502D8818632D532D7508033AAF
:100AB0000319502D073A0319532D632D632D071089
:100AC0006B2D87106B2D7508033A03195F2D073ABC
:100AD0000319612D6B2D70089300831603131418EE
:100AE000852D7308740403190800762D772D0000F6
:100AF0000130F3020030031CF403F4026D2D831265
:100B000007148D2D831287148D2D7508033A031950
:100B10007F2D073A0319822D8D2D83121308F100C2
:100B20007108F2000800831203135708013EF00019
:100B3000003003180130F1005608D800D9015808D8
:100B4000F2005908F3000A128A1122230A128A11AC
:100B50008312031320087007DA0071080318710A62
:100B6000DB00DA09DB09DA0A0319DB0A1E305A074F
:100B70005B0803185B0A003EDC00DC1B0800E82D64
:100B80005408F0005508F1005608D8005808F20043
:100B90000A128A1165230800831203135408F60011
:100BA0005508F7005608D8005808F8000A128A11AC
:100BB00080240800831203135408FA005508FB0030
:100BC0005608D8005808FC000A128A114924080067
:100BD000831203135708013A0319C02D033A03196E
:100BE000CC2D063A0319DA2DF52D080083160313D0
:100BF00088138312031388138316031308138312B5
:100C0000031308130A128A115A220A128A110A12AD
:100C10008A1120220A128A110A128A1135220A1216
:100C20008A110A128A11E5220A128A110A128A11FD
:100C300040220A128A111A3083120313E6005E3032
:100C4000E5008630E400E40B232EE50B232EE60BB3
:100C5000232E00008312031388171A30E6005E303B
:100C6000E5008630E400E40B332EE50B332EE60B73
:100C7000332E00000A128A11C8220A128A11831226
:100C80000313E4006408E7000A128A116A220A12B8
:100C90008A118312031367080A128A1169270A123C
:100CA0008A118312031388131A30E6005E30E500C0
:100CB0008630E400E40B5A2EE50B5A2EE60B5A2E32
:100CC00000002A2EF5007508F0000030F100023017
:100CD000F4007408F2000A128A1165230A128A11BC
:100CE0007508023EF0000030F1000230F400740894
:100CF000F2000A128A1165230A128A117508043E4D
:100D0000F0000030F1000230F4007408F2000A1222
:100D10008A1165230A128A117508063EF000003018
:100D2000F1000230F4007408F2000A128A116523FF
:100D30000A128A117508083EF0000030F1000230F6
:100D4000F4007408F2000A128A1165230A128A114B
:100D500075080A3EF0000030F1000230F40074081B
:100D6000F2000A128A1165230A128A1183120313F0
:100D70002008223E840083138001800A0130F400A1
:100D80007408A0072008223E840000304D1801306E
:100D900080000130F4007408A0072008223E84007F
:100DA0008001800A0130F4007408A0072008223E68
:100DB00084000030CD18013080000130F400740848
:100DC000A00708000A128A11E5220A128A110430CB
:100DD0000A128A11F9240A128A11FD007D08831271
:100DE0000313C10004300A128A11F9240A128A116D
:100DF000FD007D0883120313C20004300A128A1119
:100E0000F9240A128A11FD007D0883120313C3001E
:100E100004300A128A11F9240A128A11FD007D0891
:100E200083120313C40004300A128A11F9240A122F
:100E30008A11FD007D0883120313C50004300A12D5
:100E40008A11F9240A128A11FD007D088312031306
:100E5000C60004300A128A11F9240A128A11FD0010
:100E60007D0883120313C70004300A128A11F92483
:100E70000A128A11FD007D0883120313C800043092
:100E80000A128A11F9240A128A11FD007D088312C0
:100E90000313C90004300A128A11F9240A128A11B4
:100EA000FD007D0883120313CA000A128A1102236F
:100EB000770883120313CF007608CE004F08FD0099
:100EC0007D08CB004E08FD007D08CC004D14CD14EC
:100ED000080083120313E300E72F0A128A11E226A7
:100EE0000A128A1141300A128A1162260A128A11E4
:100EF000113083120313E0006008F00003300A127F
:100F00008A1144250A128A1183120313CF01CF0AD2
:100F10001030E0006008D00003300A128A117B22F2
:100F2000080008170330E2008A30E1005630E00084
:100F3000E00B982FE10B982FE20B982F9F2F831235
:100F4000031308130330E2008A30E1005630E0005A
:100F5000E00BA82FE10BA82FE20BA82FAF2F0A124E
:100F60008A114C220A128A11113083120313E000F5
:100F70006008F00003300A128A1144250A128A110F
:100F800083120313CF01CF0A1030E0006008D000B5
:100F900003300A128A117B22080001300A128A11DA
:100FA00025220A128A110A128A1143230A128A116F
:100FB000023083120313E0006008CF001030E1001C
:100FC0006108D00003300A128A117B2208008312C4
:100FD00003136308013A0319912F033A0319CD2F24
:100FE000013A03196D2FF42F080083132030840079
:100FF0004E300A128A112D2283010A128A11F62D0F
:02400E0072FF3F
:00000001FF
