:060000000A128A11122809
:10000800FE00030EF5000408F6000A08F700831244
:1000180003137F08F8000A128A11B62E0A128A11F1
:100028001528F901FA0183134C3084005C300A1258
:100038008A15BD260A128A11A0308400C0300A121F
:100048008A15BD2683010A128A112A2883160313EA
:100058008813831203138813831603130813831258
:1000680003130813831603130811831203130815C7
:100078000A128A15EA260A128A110A128A11FB271D
:100088000A128A110A128A15C5260A128A110A1238
:100098008A151A270A128A110A128A15D0260A12F4
:1000A8008A11F901FA011A3083120313C3005E3072
:1000B800C2008630C100C10B5F28C20B5F28C30B8A
:1000C8005F2800008312031388170330C3008A30A7
:1000D800C2005630C100C10B6F28C20B6F28C30B7A
:1000E8006F28762802300A128A116F210A128A11A3
:1000F80083120313881708171A30C3005E30C20032
:100108008630C100C10B8628C20B8628C30B8628FF
:10011800000083120313881308131A30C3005E30DB
:10012800C2008630C100C10B9728C20B9728C30BA9
:1001380097280000831203135A080A128A116224AE
:100148000A128A1183120313881708171A30C3007A
:100158005E30C2008630C100C10BB028C20BB02887
:10016800C30BB028000083120313881308131A3036
:10017800C3005E30C2008630C100C10BC128C20B6B
:10018800C128C30BC1280000831203135B080A129D
:100198008A1162240A128A11003083120313C500DF
:1001A8000030C6000030C7005808C100C201570817
:1001B800C300C4014308C400C30141084304C80084
:1001C80042084404C900CA01C91BCA034A08CB0033
:1001D800CB1F10290030C1000030C200FF30C3001F
:1001E800FF30C4004808C10749080318490FFD2813
:1001F800FE28C2074A0803184A0F03290429C3071F
:100208004B0803184B0AC4074408CB004308CA002C
:100218004208C9004108C8000030B0000030B100F1
:100228004330B2004B08AB004A08AA004908A900AD
:100238004808A8000A128A1174260A128A11831221
:1002480003132808B3002908B4002A08B5000A12C5
:100258008A1129220A128A11831203133008C50051
:100268003108C6003208C7004508A0004608A100AA
:100278004708A2000030A3002030A4004130A500A8
:100288000A128A1131250A128A11031C5E29831267
:10029800031308170330C3008A30C2005630C10068
:1002A800C10B5429C20B5429C30B54295B2983124F
:1002B800031308138312031388130330C3008A300F
:1002C800C2005630C100C10B6729C20B6729C30B96
:1002D80067296E29662883120313C0001B2A0A1295
:1002E8008A116D230A128A114D300A128A11E122ED
:1002F8000A128A11113083120313BD003D08A000B1
:1003080003300A128A1190250A128A1183120313E4
:10031800AF01AF0A1030BD003D08B00003300A122B
:100328008A15FE26080008170330BF008A30BE0071
:100338005630BD00BD0B9E29BE0B9E29BF0B9E29C2
:10034800A5298312031308130330BF008A30BE00A7
:100358005630BD00BD0BAE29BE0BAE29BF0BAE2972
:10036800B5290A128A15DC260A128A11113083125D
:100378000313BD003D08A00003300A128A1190251E
:100388000A128A1183120313AF01AF0A1030BD009D
:100398003D08B00003300A128A15FE260800013015
:1003A8000A128A15B5260A128A11831603138C16A7
:1003B8008B170B17023079067A040319042A831263
:1003C800031308170230BF000430BE00BA30BD0066
:1003D800BD0BEC29BE0BEC29BF0BEC2900008312E6
:1003E800031308130230BF000430BE00BA30BD004A
:1003F800BD0BFC29BE0BFC29BF0BFC290000DE2924
:10040800F901FA01831603138C128B130B135A305C
:1004180083120313B4000030B5000230BD003D085C
:10042800B600B701B70A0A128A11CE24080083124F
:1004380003134008013A03199729033A0319D329EA
:10044800013A03197329282A080083120313330871
:10045800B6003408B7003508B8000310370D380D5A
:10046800B9003908BE003E08031D412A0030B0001B
:100478000030B1000030B20008003008B600310882
:10048800B7003208B8000310370D380DB900390825
:10049800BF003F08031D572A0030B0000030B100EC
:1004A8000030B20008000030BB000030BC00003053
:1004B800BD0089303F07B6003608BE023308B600D3
:1004C8003408B7003508B80010300310B80CB70C62
:1004D800B60CFF3E031D692A3608B9003908BF006B
:1004E8003008B6003108B7003208B80010300310E1
:1004F800B80CB70CB60CFF3E031D7B2A3608B900B2
:100508003908BF068030B6003608BF05B417FF307B
:10051800B305FF30B4050030B505B117FF30B0059D
:10052800FF30B1050030B2051830B6003608BA0001
:1005380001300310BB0DBC0DBD0DFF3E031D9D2AF0
:1005480032083502031DAE2A31083402031DAE2AD3
:1005580030083302031CBB2A3008B3023108031CDD
:10056800310FB4023208031C320AB5023B140130C1
:100578000310B30DB40DB50DFF3E031DBC2A0130A9
:10058800BA02031D9C2A3B08A0003C08A1003D08B4
:10059800A2003E08B6003608A3003F08B700370897
:1005A800A4000A128A11F423831203132008B0004E
:1005B8002108B1002208B200080083120313A50025
:1005C8002508A0000030A1000230A4002408A200E1
:1005D8000A128A1579270A128A1183120313250829
:1005E800023EA0000030A1000230A4002408A200AE
:1005F8000A128A1579270A128A1183120313250809
:10060800043EA0000030A1000230A4002408A2008B
:100618000A128A1579270A128A11831203132508E8
:10062800063EA0000030A1000230A4002408A20069
:100638000A128A1579270A128A11831203132508C8
:10064800083EA0000030A1000230A4002408A20047
:100658000A128A1579270A128A11831203132508A8
:100668000A3EA0000030A1000230A4002408A20025
:100678000A128A1579270A128A11831203134C0861
:10068800A13E840083138001800A0130A40024085D
:10069800CC074C08A13E8400003059180130800076
:1006A8000130A4002408CC074C08A13E8400800136
:1006B800800A0130A4002408CC074C08A13E84001D
:1006C8000030D918013080000130A4002408CC077C
:1006D80008000A128A151A270A128A1104300A1207
:1006E8008A11E0250A128A1183120313AD002D081E
:1006F800CD0004300A128A11E0250A128A118312E9
:100708000313AD002D08CE0004300A128A11E0252B
:100718000A128A1183120313AD002D08CF0004308A
:100728000A128A11E0250A128A1183120313AD00F6
:100738002D08D00004300A128A11E0250A128A1105
:1007480083120313AD002D08D10004300A128A1158
:10075800E0250A128A1183120313AD002D08D20076
:1007680004300A128A11E0250A128A11831203132F
:10077800AD002D08D30004300A128A11E0250A12B0
:100788008A1183120313AD002D08D40004300A1215
:100798008A11E0250A128A1183120313AD002D086D
:1007A800D50004300A128A11E0250A128A11831230
:1007B8000313AD002D08D6000A128A11D727831219
:1007C80003132708AF002608AE002F08AD002D0838
:1007D800D7002E08AD002D08D8005914D9140800E8
:1007E8008312031323080319FE2B22082104200473
:1007F800031D112C0030A0000030A1000030A20021
:1008080008000130A5002508A30701300310A20C39
:10081800A10CA00CFF3E031D0A2CFE302205031973
:100828002C2C052C0130A5002508A3070130A007B2
:10083800003003180130A107003003180130A20767
:1008480001300310A20CA10CA00CFF3E031D252CA7
:10085800FF30220503193B2C162C0130A30201306E
:100868000310A00DA10DA20DFF3E031D342CA11BEA
:10087800412C023023020318312C2318492CFF3055
:10088800A0057F30A105FF30A2050310A30C2308A3
:10089800A500A601A70110300310A50DA60DA70DF0
:1008A800FF3E031D502C2508A0042608A104270894
:1008B800A204240803190800A217080083120313CE
:1008C800A300A5010830250203180800043084009D
:1008D8000A128A1500200A128A112305A00020088E
:1008E800A40088170330A2008A30A1005630A00067
:1008F800A00B7C2CA10B7C2CA20B7C2C832C8312B0
:10090800031388130330A2008A30A1005630A000D8
:10091800A00B8C2CA10B8C2CA20B8C2C932C83124F
:10092800031324080319B72C08171A30A2005E30E5
:10093800A1008630A000A00B9F2CA10B9F2CA20B1E
:100948009F2C00008312031308131A30A2005E3094
:10095800A1008630A000A00BAF2CA10BAF2CA20BDE
:10096800AF2C0000C52C333083120313A200BC3017
:10097800A1001030A000A00BBF2CA10BBF2CA20B14
:10098800BF2C031083120313A30D0130A00020080D
:10099800A507662C831203133708013EA000003018
:1009A80003180130A1003608B800B9013808A200C0
:1009B8003908A3000A128A1556270A128A118312C7
:1009C80003134C082007BA0021080318210ABB00AA
:1009D800BA09BB09BA0A0319BB0A1E303A073B0811
:1009E80003183B0A003EBC00BC1B0800232D34083A
:1009F800A0003508A1003608B8003808A2000A127D
:100A08008A1579270800831203133408A6003508CD
:100A1800A7003608B8003808A8000A128A11F82674
:100A28000800831203133408AA003508AB003608FF
:100A3800B8003808AC000A128A113327080083125C
:100A480003133708013A0319FB2C033A0319072D3E
:100A5800063A0319152D302D080083120313A21F1F
:100A68005A2D0030A6000030A7008030A8002009C9
:100A7800A9002109AA002209AB00A90A0319AA0A98
:100A88000319AB0A2908A6072A0803182A0F4D2DAF
:100A98004E2DA7072B0803182B0F532D542DA807ED
:100AA8002608A0002708A1002808A200A51F812D5C
:100AB8000030A6000030A7008030A8002309A90054
:100AC8002409AA002509AB00A90A0319AA0A0319CF
:100AD800AB0A2908A6072A0803182A0F742D752DB2
:100AE800A7072B0803182B0F7A2D7B2DA80726089C
:100AF800A3002708A4002808A5008030A20680309B
:100B0800A50625082202031D080024082102031D4A
:100B1800080023082002080083120313A500E83008
:100B2800A3000330A4001308A1002108A200A22DED
:100B38000818AF2D9C2D8818AF2D9F2D2508033A36
:100B480003199C2D073A03199F2DAF2DAF2D0710C0
:100B5800B72D8710B72D2508033A0319AB2D073A8F
:100B68000319AD2DB72D200893008316031314180D
:100B7800D22D83122308240403190800C32DC42D81
:100B88000000013083120313A3020030031CA403E6
:100B9800A402B92D0714DB2D8714DB2D8312250839
:100BA800033A0319CE2D073A0319D02DDB2D13086C
:100BB800A1002108A200080083120313A400E83052
:100BC800A2000330A3001308A0002008A100F22D02
:100BD8000818FF2DEC2D8818FF2DEF2D2408033A57
:100BE8000319EC2D073A0319EF2DFF2DFF2D0710E0
:100BF800072E8710072E2408033A0319FB2D073AFE
:100C08000319FD2D072E9301831603131418212EA3
:100C180083122208230403190800122E132E000041
:100C2800013083120313A2020030031CA303A302A2
:100C3800082E07142A2E87142A2E83122408033A12
:100C480003191D2E073A03191F2E2A2E1308080010
:100C580083120313AB00AA0126088400831300083B
:100C680003196F2E2608840083130008A70027089D
:100C7800A8002608A7002708A0002B080A128A1136
:100C880090250A128A11013083120313A70027083E
:100C9800A6070130A7002708AA07A90128082902E2
:100CA8000318302E2608A7002708A0002B080A12D0
:100CB8008A1190250A128A11013083120313A700A2
:100CC8002708A6070130A7002708AA070130A700B0
:100CD8002708A907522E1E302A0203180800362EAC
:100CE80083120313AF018E30AC002C08AE00AB1F8B
:100CF8008A2EA809A909AA09AB09A80A0319A90AE9
:100D08000319AA0A0319AB0AAF01AF0AFF302B0572
:100D180003199C2E01300310AB0CAA0CA90CA80CCB
:100D2800FF3E031D8F2E0130AC002C08AE078A2E23
:100D38002808A0002908A1002A08A2002E08AC0053
:100D48002C08A3002F08AD002D08A4000A128A1150
:100D5800F423831203132008A8002108A9002208FD
:100D6800AA0008008C1EEB2E08170D30F400AF30D7
:100D7800F300C130F200F20BBF2EF30BBF2EF40BC1
:100D8800BF2E0000831203138C120A128A1537270C
:100D98000A128A11F20079085A3E840072088313F5
:100DA80080000130F9070318FA0A0030FA078312A5
:100DB800031308130D30F400AF30F300C130F20014
:100DC800F20BE42EF30BE42EF40BE42E000078086B
:100DD80083120313FF0077088A0076088400750ED3
:100DE8008300FE0E7E0E09008312031328080319E0
:100DF8000800831203132608A0002708A1002A3040
:100E0800A9002908A2000A128A15D1270A128A11F4
:100E1800023083120313A6070318A70A0030A70796
:100E2800AD0103302D020318302F2D082A3E84000F
:100E380083130008A9004C08A13E840029088000FB
:100E48000130A9002908CC070130A9002908AD07FD
:100E580003302D02031C192F0130A802F82E83122B
:100E680003132C0803190800831203132A08A0008F
:100E78002B08A1002E30AD002D08A2000A128A15F9
:100E8800A4270A128A11033083120313AA0703182E
:100E9800AB0A0030AB07B3010530330203186B2FE0
:100EA80033082E3E840083130008AD004C08A13E91
:100EB80084002D0880000130AD002D08CC070130DA
:100EC800AD002D08B30705303302031C542F013041
:100ED800AC02332F83120313A50020088400831368
:100EE8000008A100A2012508840021088000840AC6
:100EF800220880002508840002300310800D840A2F
:100F0800800D8403FF3E031D812F033084000A12E5
:100F18008A1500200A128A11A100200A84000008FC
:100F2800A20006300310A20CFF3E031D962F2208D4
:100F38002105A300A4012508840023088004840A4D
:100F480024088004080083120313AE00A001A00A3D
:100F58002E080A128A1190250A128A118312031385
:100F68002C08AD002D08A0002E080A128A11902521
:100F78000A128A11831203132C08013EAD002D08B2
:100F8800A6002E080A128A112C260A128A11831228
:100F980003132C081F3EAD002D08A0002E080A12CE
:100FA8008A119025080083120313AB01AC0181302C
:100FB8009F001F151F19DE2F1E08A8002808A9006A
:100FC800831603131E0883120313A8002808AA0017
:100FD8002930A8002808A0002B300A128A116E2791
:100FE800831203132C08A7002B08A60008008316F9
:100FF800031308148814080008308A000408840AB7
:0C10080082070034FF34003403348034CD
:101D6A0083120313A0000C1EB82E20089900080045
:101D7A0064008001840A0406031900340406BE2E96
:101D8A008312031305108511831603130514851591
:101D9A0001309F00080083160313871781309900CA
:101DAA002430980090308312031398000800013001
:101DBA0083120313B4000030B500B601B60AB701A6
:101DCA00B70A0A128A11CE240800093083120313B3
:101DDA00A0000030A1008316031389100910831292
:101DEA00031320088400831321188317033080000B
:101DFA00080083120313B2002F08B10031088316BA
:101E0A000313A000831203133008B10031088316AC
:101E1A000313BF00A03083120313B1003108AC00D2
:101E2A0032080A128A11A72708008316031387119A
:101E3A00871207160710871083120313941283164A
:101E4A000313941383120313141283160313141324
:101E5A008312031394111411941014100714871485
:101E6A0094160800F001F101432F0130F00703181E
:101E7A00F10A0030F107412F422F000083120313A9
:101E8A008C1A522F7108803AFF0080307F02031D9E
:101E9A00502F65307002031C3A2F831203131A085D
:101EAA00080083120313A401A501201C622F220833
:101EBA00A4070318A50A2308A50701300310A20DD9
:101ECA00A30DFF3E031D632F01300310A10CA00CCC
:101EDA00FF3E031D6A2F20082104031D5A2F2508DF
:101EEA00A1002408A0000800831203132208031982
:101EFA000800831203134C08A13E84008313800157
:101F0A00800A0130A3002308CC0720088400831725
:101F1A00211C83130008A3004C08A13E8400230857
:101F2A00831380000130A0070318A10A0030A1071B
:101F3A000130A3002308CC070130A202792F8312B3
:101F4A000313200884008317211C83130008A500AB
:101F5A00840A0008A600840A0008A7000430A30027
:101F6A0022088400230883138000A901043029026F
:101F7A00031808002908253E84000008A300290840
:101F8A00013E2207A40024088400230880000130AF
:101F9A00A3002308A907BB2F023083120313A3004F
:101FAA0022088400230883138000200884008317F2
:101FBA00211C83130008A300840A0008A400240833
:101FCA00A500220A840025088313800001308400BA
:101FDA000A128A150020A300200884008317211CF6
:101FEA00831300082305A4002208023E8400240863
:061FFA00831380000800C3
:02400E0072FF3F
:00000001FF
