:100000000A128A11F52F00308A000408840A820738
:080010000034FF340034033416
:1003BA0002300A128A11FA2108008316031308145C
:1003CA008814080064008001840A040603190034B2
:1003DA000406E829831203130510851183160313F3
:1003EA000514851501309F00080083120313D000FD
:1003FA002130FD007D08FB0050080A128A113F23B4
:10040A000800831603138717813099002430980057
:10041A0090308312031398000800013083120313EB
:10042A00D4000030D500D601D60AD701D70A0A125D
:10043A008A11782508000930F0000030F10083168F
:10044A000313891009107008840083137118831725
:10045A0003308000080083120313D2004F08D10032
:10046A005108A1005008D1005108C0002130D10024
:10047A005108FC0052080A128A116B230800F20084
:10048A000930F3000030F4007308840083137418F1
:10049A008317720880004130F100EE30F000F00B53
:1004AA00542AF10B542A0000730884008313741829
:1004BA0083170330800008008316031387118712FD
:1004CA000716071107108710831203139412831655
:1004DA0003139413831203131412831603131413AE
:1004EA00831203139411141194101410071507148E
:1004FA00871494160800FB01FC0181308312031350
:10050A009F001F151F19872A1E08F8007808F9008E
:10051A00831603131E08F8007808FA007930F800E9
:10052A007808F0007B300A128A119B237C08F700B6
:10053A007B08F6000800F401F501701CAA2A72086B
:10054A00F4070318F50A7308F50701300310F20DD2
:10055A00F30DFF3E031DAB2A01300310F10CF00C22
:10056A00FF3E031DB22A70087104031DA22A7508F2
:10057A00F1007408F00008007208031908008312D9
:10058A0003132008223E840083138001800A01306D
:10059A00F3007308A007700884008317711C831383
:1005AA000008F3002008223E8400730883138000A9
:1005BA000130F0070318F10A0030F1070130F300A7
:1005CA007308A0070130F202C12A0230F300720850
:1005DA00840073088000700884008317711C8313D9
:1005EA000008F300840A0008F4007408F500720A8F
:1005FA00840075088000013084000A128A110320E1
:10060A00F300700884008317711C831300087305B4
:10061A00F4007208023E8400740880000800700822
:10062A0084008317711C83130008F500840A0008EC
:10063A00F600840A0008F7000430F3007208840008
:10064A00730883138000F901043079020318080043
:10065A007908753E84000008F3007908013E7207A4
:10066A00F40074088400730880000130F3007308F2
:10067A00F907292B83120313CF00CE014F080A1260
:10068A008A11BC240A128A11FC007C088312031303
:10069A00CE004F080A128A11BC240A128A11FC00E1
:1006AA007C0883120313A1004F080A128A113F24FF
:1006BA000A128A11831203134F080A128A11BC24E0
:1006CA00FC007C0883120313C00008008312031382
:1006DA00CE00F001F00A4E080A128A1118250A12F1
:1006EA008A117C08FD007D08F000831203134E086E
:1006FA000A128A1118250A128A117C08013EFD0085
:10070A007D08F600831203134E080A128A117A240E
:10071A000A128A117C081F3EFD007D08F000831230
:10072A0003134E080A128A1118250800F5007008EA
:10073A0084000008F100F201750884007108800045
:10074A00840A720880007508840002300310800D44
:10075A00840A800D8403FF3E031DAB2B0330840003
:10076A000A128A1103200A128A11F100700A8400FF
:10077A000008F20006300310F20CFF3E031DC02BE6
:10078A0072087105F300F401750884007308800487
:10079A00840A7408800408007C08031908007A088F
:1007AA00F0007B08F1004E30FD007D08F2000A12CD
:1007BA008A1114230A128A110330FA070318FB0A52
:1007CA000030FB0783120313D301053053020318C9
:1007DA00052C53084E3E840083130008FD002008B0
:1007EA00223E84007D0880000130FD007D08A007BC
:1007FA000130FD007D08D30705305302031CEE2BA0
:10080A000130FC02D12B7808031908007608F000A1
:10081A007708F1007A30F9007908F2000A128A1191
:10082A00EA220A128A110230F6070318F70A003080
:10083A00F707FD0103307D0203183C2C7D087A3E40
:10084A0084000008F900831203132008223E840062
:10085A007908831380000130F9007908A007013074
:10086A00F9007908FD0703307D02031C232C0130AF
:10087A00F802082CFA00F9012230F5007508F80090
:10088A008312031320080319752C7A080A128A1195
:10089A00BC240A128A11F5007508F6000130F50029
:1008AA007508F907F701760877020318452C7A08C4
:1008BA000A128A11BC240A128A11F50078088400E7
:1008CA007508831380000130F5007508F8070130B8
:1008DA00F5007508F9070130F5007508F707582C77
:1008EA001E307902031808004A2CFB00FA01760828
:1008FA008400831300080319B72C76088400831335
:10090A000008F7007708F8007608F7007708F00083
:10091A007B080A128A1118250A128A110130F70077
:10092A007708F6070130F7007708FA07F90178081F
:10093A00790203187C2C7608F7007708F0007B0808
:10094A000A128A1118250A128A110130F70077084B
:10095A00F6070130F7007708FA070130F700770841
:10096A00F9079C2C1E307A0203180800822CF40026
:10097A00E830F2000330F300831203131308F00087
:10098A007008F100D12C0819E32CC82C0818E32CA4
:10099A00CB2C8818E32CCE2C7408023A0319C82CE5
:1009AA00013A0319CB2C073A0319CE2CE32CE32C7A
:1009BA000711EE2C0710EE2C8710EE2C7408023A61
:1009CA000319DD2C013A0319DF2C073A0319E12C2C
:1009DA00EE2C93018316031314180A2D720873045C
:1009EA0003190800F82CF92C00000130F20200303B
:1009FA00031CF303F302EF2C83120715152D831240
:100A0A000714152D83128714152D7408023A031939
:100A1A00012D013A0319042D073A0319072D152D43
:100A2A00831213080800F500E830F3000330F400DD
:100A3A00831203131308F1007108F2002D2D08190F
:100A4A003F2D242D08183F2D272D88183F2D2A2D9C
:100A5A007508023A0319242D013A0319272D073A7A
:100A6A0003192A2D3F2D3F2D07114A2D07104A2D14
:100A7A0087104A2D7508023A0319392D013A0319CC
:100A8A003B2D073A03193D2D4A2D70089300831612
:100A9A0003131418672D7308740403190800552DDD
:100AAA00562D00000130F3020030031CF403F40257
:100ABA004C2D83120715722D83120714722D83127F
:100ACA008714722D7508023A03195E2D013A03192B
:100ADA00612D073A0319642D722D83121308F10050
:100AEA007108F2000800831203135708013EF00050
:100AFA00003003180130F1005608D800D90158080F
:100B0A00F2005908F3000A128A11A0220A128A1165
:100B1A008312031320087007DA0071080318710A98
:100B2A00DB00DA09DB09DA0A0319DB0A1E305A0785
:100B3A005B0803185B0A003EDC00DC1B0800CD2DB5
:100B4A005408F0005508F1005608D8005808F20079
:100B5A000A128A11C1220800831203135408F600EC
:100B6A005508F7005608D8005808F8000A128A11E2
:100B7A0008240800831203135408FA005508FB00DE
:100B8A005608D8005808FC000A128A11D123080016
:100B9A00831203135708013A0319A52D033A0319BF
:100BAA00B12D063A0319BF2DDA2D08008316031357
:100BBA008813831203138813E4010A128A1120226C
:100BCA000A128A110A128A11E2210A128A110A12D7
:100BDA008A1106220A128A110A128A11EF210A12AE
:100BEA008A110A128A1161220A128A1183120313C4
:100BFA0088171A30E3005E30E2008630E100E10B2C
:100C0A00042EE20B042EE30B042E0000F001F00A7E
:100C1A0003300A128A1118250A128A1103300A129D
:100C2A008A11BC240A128A1183120313E100610893
:100C3A00E4006408031D640A031D292E05300A1204
:100C4A008A1144220A128A11F001F00A04300A12A7
:100C5A008A1118250A128A118312031388183B2E47
:100C6A0006300A128A1144220A128A1183120313C5
:100C7A0064080A128A115B270A128A118312031363
:100C8A0088131A30E3005E30E2008630E100E10B9F
:100C9A004C2EE20B4C2EE30B4C2E0000FB2DF500E4
:100CAA007508F0000030F1000230F4007408F20018
:100CBA000A128A11C1220A128A117508023EF0002C
:100CCA000030F1000230F4007408F2000A128A11AE
:100CDA00C1220A128A117508043EF0000030F100A0
:100CEA000230F4007408F2000A128A11C1220A12B0
:100CFA008A117508063EF0000030F1000230F40057
:100D0A007408F2000A128A11C1220A128A1175089D
:100D1A00083EF0000030F1000230F4007408F200DE
:100D2A000A128A11C1220A128A1175080A3EF000B3
:100D3A000030F1000230F4007408F2000A128A113D
:100D4A00C1220A128A11831203132008223E840048
:100D5A0083138001800A0130F4007408A007200878
:100D6A00223E840000304D18013080000130F4002A
:100D7A007408A0072008223E84008001800A0130FE
:100D8A00F4007408A0072008223E84000030CD1821
:100D9A00013080000130F4007408A00708000A122C
:100DAA008A1161220A128A1104300A128A11BC2499
:100DBA000A128A11FD007D0883120313C100043050
:100DCA000A128A11BC240A128A11FD007D088312B4
:100DDA000313C20004300A128A11BC240A128A11AF
:100DEA00FD007D0883120313C30004300A128A111E
:100DFA00BC240A128A11FD007D0883120313C40061
:100E0A0004300A128A11BC240A128A11FD007D08D4
:100E1A0083120313C50004300A128A11BC240A1271
:100E2A008A11FD007D0883120313C60004300A12DA
:100E3A008A11BC240A128A11FD007D088312031349
:100E4A00C70004300A128A11BC240A128A11FD0052
:100E5A007D0883120313C80004300A128A11BC24C5
:100E6A000A128A11FD007D0883120313C900043097
:100E7A000A128A11BC240A128A11FD007D08831203
:100E8A000313CA000A128A118022770883120313F5
:100E9A00CF007608CE004F08FD007D08CB004E0833
:100EAA00FD007D08CC004D14CD14080083120313F5
:100EBA00E000E72F0A128A11D4260A128A11413059
:100ECA000A128A1154260A128A1111308312031344
:100EDA00DD005D08F00003300A128A1118250A1293
:100EEA008A1183120313CF01CF0A1030DD005D0887
:100EFA00D00003300A128A11302208000817033082
:100F0A00DF008A30DE005630DD00DD0B8A2FDE0B73
:100F1A008A2FDF0B8A2F912F8312031308130330B2
:100F2A00DF008A30DE005630DD00DD0B9A2FDE0B43
:100F3A009A2FDF0B9A2FA12F0A128A1112220A1254
:100F4A008A11113083120313DD005D08F0000330AB
:100F5A000A128A1118250A128A1183120313CF0161
:100F6A00CF0A1030DD005D08D00003300A128A1162
:100F7A0030220800F001F00A02300A128A111825FC
:100F8A000A128A110A128A11DD210A128A111130F3
:100F9A0083120313DD005D08F00003300A128A1180
:100FAA0018250A128A11023083120313DD005D0824
:100FBA00CF001030DE005E08D00003300A128A111A
:100FCA0030220800831203136008013A0319832FA1
:100FDA00033A0319BF2F013A03195F2FF42F0800B0
:100FEA008313203084004E300A128A11E7218301CC
:060FFA000A128A11DB2D32
:02400E0072FF3F
:00000001FF
