:100000000A128A11F42F00308A000408840A820739
:0C0010000034FF340334FF3400340334A8
:100EA8008316031308148814080064008001840A58
:100EB80004060319003404065A2F8312031305107D
:100EC8008511831603130514851501309F0008004A
:100ED80083160313871781309900243098009030C7
:100EE80083120313980008000930F0000030F10065
:100EF800831603138910091070088400831371186E
:100F08008317033080000800F2000930F300003036
:100F1800F400730884008313741883177208800020
:100F28004130F100EE30F000F00B982FF10B982FC4
:100F3800000073088400831374188317033080003B
:100F480008008316031388138312031388130A12E5
:100F58008A1178270A128A110A128A1154270A124A
:100F68008A110A128A116C270A128A110A128A1126
:100F780061270A128A11831203130818C92F053032
:100F88000A128A1188270A128A11831203138818F1
:100F9800D32F06300A128A1188270A128A1183125F
:100FA800031388171A30F7005E30F6008630F50014
:100FB800F50BDC2FF60BDC2FF70BDC2F0000831270
:100FC800031388131A30F7005E30F6008630F500F8
:100FD800F50BEC2FF60BEC2FF70BEC2F0000D32FB3
:100FE800F8018313203084004D300A128A115927E2
:080FF80083010A128A11A52FE2
:02400E0072FF3F
:00000001FF
