:100000000A128A11FC2F00308A000408840A820731
:060010000034FF3403344C
:100EFE0083160313871781309900243098009030A1
:100F0E0083120313980008000930F0000030F1003E
:100F1E0083160313091189100910700884008313B6
:100F2E0071188317073080000800F2000930F300B3
:100F3E000030F400730884008317741C831380013F
:100F4E004130F100EE30F000F00BAB2FF10BAB2F78
:100F5E0000007308840083137418831772088000CE
:100F6E0008008316031388138312031388130D309E
:100F7E00F700AF30F600C130F500F50BC42FF60BBD
:100F8E00C42FF70BC42F00000A128A118B270A12E6
:100F9E008A110A128A117F270A128A1183120313E9
:100FAE00881704300A128A119C270A128A111A30E5
:100FBE00F7005E30F6008630F500F50BE42FF60BE9
:100FCE00E42FF70BE42F00008312031388131A305B
:100FDE00F7005E30F6008630F500F50BF42FF60BB9
:100FEE00F42FF70BF42F0000D52F83010A128A116C
:020FFE00B82F0A
:02400E0072FF3F
:00000001FF
