:100000000A128A11F52F00308A000408840A820738
:080010000034FF340034033416
:10039C0002300A128A11EB21080083160313081489
:1003AC008814080064008001840A040603190034D0
:1003BC000406D92983120313051085118316031320
:1003CC000514851501309F00080083120313D0001B
:1003DC002130FD007D08FB0050080A128A115D23B4
:1003EC000800831603138717813099002430980076
:1003FC00903083120313980008000130831203130A
:10040C00D4000030D500D601D60AD701D70A0A127B
:10041C008A11962508000930F0000030F10083168F
:10042C000313891009107008840083137118831743
:10043C00033080000800F001F00A04300A128A111F
:10044C0036250A128A118312031388180800063005
:10045C000A128A116222080083120313D2004F0879
:10046C00D1005108A1005008D1005108C000213022
:10047C00D1005108FC0052080A128A118923080085
:10048C00F701F001F00A03300A128A1136250A121C
:10049C008A1103300A128A11DA240A128A11F60020
:1004AC007608F7007708031D770A031D080005304E
:1004BC000A128A1162220800F2000930F30000309F
:1004CC00F400730884008313741883177208800077
:1004DC004130F100EE30F000F00B722AF10B722A71
:1004EC000000730884008313741883170330800092
:1004FC0008008316031387118712071607110710BC
:10050C00871083120313941283160313941383120C
:10051C00031314128316031314138312031394116D
:10052C00141194101410071507148714941608004E
:10053C00FB01FC018130831203139F001F151F194F
:10054C00A52A1E08F8007808F900831603131E0864
:10055C00F8007808FA007930F8007808F0007B3061
:10056C000A128A11B9237C08F7007B08F6000800F0
:10057C00F401F501701CC82A7208F4070318F50A77
:10058C007308F50701300310F20DF30DFF3E031D48
:10059C00C92A01300310F10CF00CFF3E031DD02AC8
:1005AC0070087104031DC02A7508F1007408F0006E
:1005BC000800720803190800831203132008223E56
:1005CC00840083138001800A0130F3007308A007B4
:1005DC00700884008317711C83130008F300200833
:1005EC00223E84007308831380000130F007031847
:1005FC00F10A0030F1070130F3007308A007013055
:10060C00F202DF2A0230F3007208840073088000C3
:10061C00700884008317711C83130008F300840A8C
:10062C000008F4007408F500720A84007508800054
:10063C00013084000A128A110320F3007008840030
:10064C008317711C831300087305F4007208023EB3
:10065C008400740880000800700884008317711CE3
:10066C0083130008F500840A0008F600840A0008C9
:10067C00F7000430F30072088400730883138000C1
:10068C00F90104307902031808007908753E8400DA
:10069C000008F3007908013E7207F4007408840026
:1006AC00730880000130F3007308F907472B83129D
:1006BC000313CF00CE014F080A128A11DA240A1252
:1006CC008A11FC007C0883120313CE004F080A1217
:1006DC008A11DA240A128A11FC007C088312031393
:1006EC00A1004F080A128A115D240A128A11831282
:1006FC0003134F080A128A11DA24FC007C088312B7
:10070C000313C000080083120313CE00F001F00A9B
:10071C004E080A128A1136250A128A117C08FD002D
:10072C007D08F000831203134E080A128A11362535
:10073C000A128A117C08013EFD007D08F600831226
:10074C0003134E080A128A1198240A128A117C0883
:10075C001F3EFD007D08F000831203134E080A12A1
:10076C008A1136250800F500700884000008F10095
:10077C00F2017508840071088000840A72088000F8
:10078C007508840002300310800D840A800D8403E8
:10079C00FF3E031DC92B033084000A128A1103206B
:1007AC000A128A11F100700A84000008F200063067
:1007BC000310F20CFF3E031DDE2B72087105F300D3
:1007CC00F4017508840073088004840A740880049A
:1007DC0008007C08031908007A08F0007B08F10077
:1007EC004E30FD007D08F2000A128A1132230A12E3
:1007FC008A110330FA070318FB0A0030FB07831237
:10080C000313D301053053020318232C53084E3E17
:10081C00840083130008FD002008223E84007D081C
:10082C0080000130FD007D08A0070130FD007D082F
:10083C00D30705305302031C0C2C0130FC02EF2BA8
:10084C007808031908007608F0007708F1007A3070
:10085C00F9007908F2000A128A1108230A128A1187
:10086C000230F6070318F70A0030F707FD010330D2
:10087C007D0203185A2C7D087A3E84000008F9008A
:10088C00831203132008223E84007908831380000E
:10089C000130F9007908A0070130F9007908FD074B
:1008AC0003307D02031C412C0130F802262CFA0087
:1008BC00F9012230F5007508F800831203132008A3
:1008CC000319932C7A080A128A11DA240A128A1153
:1008DC00F5007508F6000130F5007508F907F70109
:1008EC00760877020318632C7A080A128A11DA2424
:1008FC000A128A11F50078088400750883138000A9
:10090C000130F5007508F8070130F5007508F90796
:10091C000130F5007508F707762C1E3079020318A4
:10092C000800682CFB00FA01760884008313000889
:10093C000319D52C7608840083130008F700770878
:10094C00F8007608F7007708F0007B080A128A1185
:10095C0036250A128A110130F7007708F6070130A4
:10096C00F7007708FA07F9017808790203189A2C2E
:10097C007608F7007708F0007B080A128A113625F2
:10098C000A128A110130F7007708F6070130F700D8
:10099C007708FA070130F7007708F907BA2C1E30F0
:1009AC007A0203180800A02CF400E830F20003309F
:1009BC00F300831203131308F0007008F100EF2CFE
:1009CC000819012DE62C0818012DE92C8818012D89
:1009DC00EC2C7408023A0319E62C013A0319E92CA1
:1009EC00073A0319EC2C012D012D07110C2D0710C2
:1009FC000C2D87100C2D7408023A0319FB2C013AAC
:100A0C000319FD2C073A0319FF2C0C2D93018316A7
:100A1C0003131418282D7208730403190800162DDB
:100A2C00172D00000130F2020030031CF303F30217
:100A3C000D2D83120715332D83120714332D8312BA
:100A4C008714332D7408023A03191F2D013A031928
:100A5C00222D073A0319252D332D83121308080074
:100A6C00F500E830F3000330F4008312031313088D
:100A7C00F1007108F2004B2D08195D2D422D08185C
:100A8C005D2D452D88185D2D482D7508023A0319EA
:100A9C00422D013A0319452D073A0319482D5D2DB6
:100AAC005D2D0711682D0710682D8710682D7508AE
:100ABC00023A0319572D013A0319592D073A031914
:100ACC005B2D682D70089300831603131418852D65
:100ADC007308740403190800732D742D0000013081
:100AEC00F3020030031CF403F4026A2D8312071581
:100AFC00902D83120714902D83128714902D750856
:100B0C00023A03197C2D013A03197F2D073A031978
:100B1C00822D902D83121308F1007108F200080049
:100B2C00831203135708013EF00000300318013004
:100B3C00F1005608D800D9015808F2005908F30002
:100B4C000A128A11BE220A128A1183120313200878
:100B5C007007DA0071080318710ADB00DA09DB0987
:100B6C00DA0A0319DB0A1E305A075B0803185B0A02
:100B7C00003EDC00DC1B0800EB2D5408F00055088F
:100B8C00F1005608D8005808F2000A128A11DF2228
:100B9C000800831203135408F6005508F700560892
:100BAC00D8005808F8000A128A112624080083126B
:100BBC0003135408FA005508FB005608D8005808CF
:100BCC00FC000A128A11EF23080083120313570842
:100BDC00013A0319C32D033A0319CF2D063A031911
:100BEC00DD2DF82D0800F5007508F0000030F1003F
:100BFC000230F4007408F2000A128A11DF220A1281
:100C0C008A117508023EF0000030F1000230F40049
:100C1C007408F2000A128A11DF220A128A1175086E
:100C2C00043EF0000030F1000230F4007408F200D1
:100C3C000A128A11DF220A128A117508063EF00088
:100C4C000030F1000230F4007408F2000A128A112C
:100C5C00DF220A128A117508083EF0000030F100FC
:100C6C000230F4007408F2000A128A11DF220A1210
:100C7C008A1175080A3EF0000030F1000230F400D1
:100C8C007408F2000A128A11DF220A128A118312E6
:100C9C0003132008223E840083138001800A013054
:100CAC00F4007408A0072008223E840000304D1880
:100CBC00013080000130F4007408A0072008223EA7
:100CCC0084008001800A0130F4007408A007200819
:100CDC00223E84000030CD18013080000130F40039
:100CEC007408A00708000A128A117F220A128A11BE
:100CFC0004300A128A11DA240A128A11FD007D08C6
:100D0C0083120313C10004300A128A11DA240A1266
:100D1C008A11FD007D0883120313C20004300A12ED
:100D2C008A11DA240A128A11FD007D08831203133A
:100D3C00C30004300A128A11DA240A128A11FD0047
:100D4C007D0883120313C40004300A128A11DA24BA
:100D5C000A128A11FD007D0883120313C5000430AA
:100D6C000A128A11DA240A128A11FD007D088312F4
:100D7C000313C60004300A128A11DA240A128A11EB
:100D8C00FD007D0883120313C70004300A128A1178
:100D9C00DA240A128A11FD007D0883120313C8009D
:100DAC0004300A128A11DA240A128A11FD007D0815
:100DBC0083120313C90004300A128A11DA240A12AE
:100DCC008A11FD007D0883120313CA000A128A11CE
:100DDC009E22770883120313CF007608CE004F08AB
:100DEC00FD007D08CB004E08FD007D08CC004D14A5
:100DFC00CD140800FF0007308A007F088207052FFA
:100E0C000A128A11462A83120313E000952F0A1244
:100E1C008A1179260A128A1141300A128A11F9258F
:100E2C000A128A11113083120313DD005D08F000E1
:100E3C0003300A128A1136250A128A1183120313FF
:100E4C00CF01CF0A1030DD005D08D00003300A124C
:100E5C008A113222080008170330DF008A30DE00C6
:100E6C005630DD00DD0B382FDE0B382FDF0B382F23
:100E7C003F2F8312031308130330DF008A30DE0088
:100E8C005630DD00DD0B482FDE0B482FDF0B482FD3
:100E9C004F2F0A128A1103220A128A11113083125F
:100EAC000313DD005D08F00003300A128A113625A9
:100EBC000A128A1183120313CF01CF0A1030DD00FE
:100ECC005D08D00003300A128A1132220800F001AA
:100EDC00F00A02300A128A1136250A128A110A12F5
:100EEC008A11CE210A128A11113083120313DD00EC
:100EFC005D08F00003300A128A1136250A128A1195
:100F0C00023083120313DD005D08CF001030DE00C9
:100F1C005E08D00003300A128A11322208008312B4
:100F2C0003136008013A0319312F033A03196D2F8B
:100F3C00013A03190D2FA22F0800831603138813EF
:100F4C008312031388130A128A1111220A128A11AE
:100F5C000A128A11D3210A128A110A128A11E0216B
:100F6C000A128A110A128A117F220A128A110A1293
:100F7C008A11F7210A128A118312031388171A3067
:100F8C00E3005E30E2008630E100E10BCB2FE20B98
:100F9C00CB2FE30BCB2F00000A128A1146220A1228
:100FAC008A110A128A1121220A128A1101300A129C
:100FBC008A1109270A128A118312031388131A3013
:100FCC00E3005E30E2008630E100E10BEB2FE20B38
:0A0FDC00EB2FE30BEB2F0000C22FF8
:100FEA008313203084004E300A128A11D8218301DB
:060FFA000A128A11A32F68
:02400E0072FF3F
:00000001FF
