:060000000A128A11122809
:10000800FE00030E83120313DB000408DC000A0859
:10001800DD007F08DE000A128A11062A0A128A11F8
:10002800152883132030840050300A128A11572271
:1000380083010A128A112028831603138813831256
:10004800031388130A128A1120220A128A110A122B
:100058008A1136220A128A110A128A1143220A12B6
:100068008A118312031388171A3083160313A20008
:100078005E30A1008630A000A00B4028A10B4028CC
:10008800A20B402800008312031388131A3083162A
:100098000313A2005E30A1008630A000A00B5228F6
:1000A800A10B5228A20B52280000831203138817B1
:1000B800033083160313A2008A30A1005630A00033
:1000C800A00B6428A10B6428A20B64286B28831258
:1000D80003138813033083160313A2008A30A10088
:1000E8005630A000A00B7628A10B7628A20B762804
:1000F8007D285928F200F3018030F0007008F600DE
:10010800F401F5017508803AFF0080307F02031D75
:100118008F28083074020318BD288312031388122D
:100128008316031308160430F000F00B99289C2856
:10013800831203138816081EA5287608F000700895
:10014800F3047608F0000310700CF1007108F60053
:100158000130F4070318F50A0030F5077508803AEE
:10016800FF0080307F02031DBB2808307402031C87
:1001780091288312031388127208031D08160319A5
:1001880008128316031308120330F000F00BCA2874
:1001980083120313881673080800F30083160313E9
:1001A80008128030F0007008F600F401F5017508B7
:1001B800803AFF0080307F02031DE4280830740273
:1001C8000318092983120313881273087605031983
:1001D800EF280816F02808127608F0000310700CB3
:1001E800F1007108F60088160130F4070318F50AC3
:1001F8000030F5077508803AFF0080307F02031D44
:10020800072908307402031CE62883120313881296
:100218008316031308160330F000F00B112983121C
:10022800031388160330F000F00B182900308312EE
:100238000313081A0130F2000800FB00FD01FC015D
:100248007B08F9007907FA007A08FC007C08013875
:10025800F9007908FC000A128A1167220A128A1129
:100268007C080A128A11D1200A128A11FD01780825
:100278007D020318532900300A128A117E200A12BF
:100288008A11F9007D087707FA007A08840079084E
:10029800831380000130F9007908FD073B290130FC
:1002A8000A128A117E200A128A11F9007D0877073E
:1002B800FA007A0884007908831380000A128A11E8
:1002C800EB210800593083120313D6005608D000DA
:1002D8000230D7005708D10000300A128A11A32132
:1002E8000A128A114D3083120313D8001930D7002F
:1002F8009A30D600D60B7E29D70B7E29D80B7E29BB
:1003080085298312031359080A128A115F220A12D7
:100318008A111A3083120313D8005E30D700863052
:10032800D600D60B9529D70B9529D80B952900000F
:10033800831203135A080A128A115F2208008312D3
:100348000313D4005408D2005208F70048300A12A8
:100358008A11CE210A128A1183120313D501550876
:10036800031DC8295008D2005208F7005108D300CD
:100378005308F80048300A128A1121210A128A11FA
:1003880083120313D501CC290530D2005208D500B9
:1003980055080800FA00FB017A08F8007807F90008
:1003A8007908FB000A128A1167220A128A117B084F
:1003B8000A128A11D1200A128A1177080A128A11A0
:1003C800D1200A128A110A128A11EB21080083121D
:1003D80003138812EF29F02900008312031308126F
:1003E800831603130812831203138816FB29FC29AA
:1003F80000008312031308161030F000F00B022AD5
:10040800000008008C1E132A0C080A128A116E229A
:100418000A128A110A128A1166210A128A11831293
:1004280003135E08FF005D088A005C0884005B0E09
:100438008300FE0E7E0E090083160313081509308B
:1004480083120313DF000030E00083160313091042
:10045800831203135F088400831360188317013025
:10046800800008008316031388128312031388166A
:10047800831603130816831203130816080083163D
:100488000313871781309900243098009030831225
:1004980003139800080002308A000408840A8207BF
:1004A8000034FF34003464008001840A0406031910
:1004B80000340406582AF000831203130C1E602A25
:1004C8007008990008008312031308128316031397
:1004D80008120800831603138C128B130B130800E1
:02400E0072FF3F
:00000001FF
