:060000000A128A11122809
:10000800FE00030E83120313B1000408B2000A08AD
:10001800B3007F08B4000A128A15D52F0A128A1174
:10002800152883134B3084005B300A128A157F270A
:100038000A128A11A0308400C0300A128A157F275C
:1000480083010A128A11632A83120313CA00BC2887
:100058000A128A11E7210A128A114E300A128A11ED
:100068005B210A128A11113083160313CB004B0847
:1000780083120313B50003300A128A117E230A1271
:100088008A1183120313C401C40A103083160313A0
:10009800CB004B0883120313C50003300A128A11E0
:1000A800C22708000817033083160313CD008A30CF
:1000B800CC005630CB00CB0B5F28CC0B5F28CD0B88
:1000C8005F2866288312031308130330831603136B
:1000D800CD008A30CC005630CB00CB0B7128CC0B2E
:1000E8007128CD0B712878280A128A15A0270A12C0
:1000F8008A11113083160313CB004B0883120313A4
:10010800B50003300A128A117E230A128A1183125B
:100118000313C401C40A103083160313CB004B0821
:1001280083120313C50003300A128A11C22708007C
:1001380001300A128A1577270A128A110A128A11BF
:100148007A260A128A11023083160313CB004B0851
:1001580083120313C400103083160313CC004C0819
:1001680083120313C50003300A128A11C22708003C
:10017800831203134A08013A03195628033A03194C
:100188009C28013A03192C28C92808008316031350
:100198004308013E83120313B500003003180130F1
:1001A800B600831603134208C400C501440883122D
:1001B8000313B70083160313450883120313B8000B
:1001C8000A128A11A4260A128A11831203134D08EF
:1001D800350783160313C600831203133608031862
:1001E800360A83160313C700C609C709C60A0319C6
:1001F800C70A1E30460747080318470A003EC800CA
:10020800C81B08004D29400883120313B500831644
:100218000313410883120313B6008316031342081D
:10022800C400440883120313B7000A128A11F9257F
:10023800080083160313400883120313BB008316B8
:100248000313410883120313BC00831603134208E7
:10025800C400440883120313BD000A128A11F7244C
:10026800080083160313400883120313BF00831684
:100278000313410883120313C000831603134208B3
:10028800C400440883120313C1000A128A113225DC
:100298000800831603134308013A03190729033A90
:1002A80003191D29063A031935295A29080083120A
:1002B8000313BA003A08B5000030B6000230B9009E
:1002C8003908B7000A128A11F9250A128A1183120D
:1002D80003133A08023EB5000030B6000230B900F8
:1002E8003908B7000A128A11F9250A128A118312ED
:1002F80003133A08043EB5000030B6000230B900D6
:100308003908B7000A128A11F9250A128A118312CC
:1003180003133A08063EB5000030B6000230B900B3
:100328003908B7000A128A11F9250A128A118312AC
:1003380003133A08083EB5000030B6000230B90091
:100348003908B7000A128A11F9250A128A1183128C
:1003580003133A080A3EB5000030B6000230B9006F
:100368003908B7000A128A11F9250A128A1183126C
:1003780003134D08A13E840083138001800A0130D5
:10038800B9003908CD074D08A13E840000305A183D
:10039800013080000130B9003908CD074D08A13E71
:1003A80084008001800A0130B9003908CD074D0862
:1003B800A13E84000030DA18013080000130B90015
:1003C8003908CD0708000A128A1188270A128A11EB
:1003D80004300A128A111E240A128A118312031386
:1003E800BA003A08CE0004300A128A111E240A12F2
:1003F8008A1183120313BA003A08CF0004300A1294
:100408008A111E240A128A1183120313BA003A08A9
:10041800D00004300A128A111E240A128A1183128B
:100428000313BA003A08D10004300A128A111E24B4
:100438000A128A1183120313BA003A08D200043050
:100448000A128A111E240A128A1183120313BA008F
:100458003A08D30004300A128A111E240A128A119B
:1004680083120313BA003A08D40004300A128A111E
:100478001E240A128A1183120313BA003A08D500FF
:1004880004300A128A111E240A128A1183120313D5
:10049800BA003A08D60004300A128A111E248312C0
:1004A8000313BA003A08D7003C08BA003A08D80043
:1004B8003B08BA003A08D9005A14DA14080083161F
:1004C800031388138312031388130A128A15EA2761
:1004D8000A128A110A128A1593270A128A110A1215
:1004E8008A1587270A128A110A128A1564270A129E
:1004F8008A111A3083160313D4005E30D300863075
:10050800D200D20B852AD30B852AD40B852A00006A
:10051800831203138817033083160313D4008A3019
:10052800D3005630D200D20B972AD30B972AD40B7C
:10053800972A9E2A831203130819CA2A83160313BB
:10054800D501D6015608803AFF0080307F02031D8E
:10055800AF2A643055020318BF2A0A128A112C27C1
:100568000A128A11013083160313D5070318D60A15
:100578000030D6079E2A0A128A1567270A128A119E
:100588000A128A112E230A128A119E2A881303300E
:1005980083160313D4008A30D3005630D200D20B0E
:1005A800D32AD30BD32AD40BD32ADA2A8C2AF200E3
:1005B800F3018030F0007008F600F401F5017508C9
:1005C800803AFF0080307F02031DEC2A0830740255
:1005D80003181A2B831203138812831603130816A1
:1005E8000430F000F00BF62AF92A83120313881658
:1005F800081E022B7608F0007008F3047608F00055
:100608000310700CF1007108F6000130F4070318AC
:10061800F50A0030F5077508803AFF0080307F0240
:10062800031D182B08307402031CEE2A83120313CF
:1006380088127208031D081603190812831603137B
:1006480008120330F000F00B272B831203138816CF
:10065800730808000A128A15C1270A128A110A1299
:100668008A156A270A128A110A128A1188270A1219
:100678008A110A128A1587270A128A11831203130C
:1006880088171A3083160313D0005E30CF008630E7
:10069800CE00CE0B4D2BCF0B4D2BD00B4D2B00008E
:1006A8000A128A11C7260A128A1183160313CE006A
:1006B8004E08D1000A128A15AE270A128A1183162B
:1006C800031351080A128A1128200A128A11831268
:1006D800031388131A3083160313D0005E30CF003B
:1006E8008630CE00CE0B762BCF0B762BD00B762B0D
:1006F8000000422B83120313BA00E830B80003301D
:10070800B9001308B6003608B700902B08189D2BBF
:100718008A2B88189D2B8D2B3A08033A03198A2BAC
:10072800073A03198D2B9D2B9D2B0710A52B87109E
:10073800A52B3A08033A0319992B073A03199B2B5F
:10074800A52B35089300831603131418C02B8312A6
:100758003808390403190800B12BB22B0000013006
:1007680083120313B8020030031CB903B902A72B84
:100778000714C92B8714C92B83123A08033A0319A3
:10078800BC2B073A0319BE2BC92B1308B600360831
:10079800B7000800F3008316031308128030F00036
:1007A8007008F600F401F5017508803AFF00803002
:1007B8007F02031DE12B083074020318062C8312F4
:1007C80003138812730876050319EC2B0816ED2B12
:1007D80008127608F0000310700CF1007108F6009A
:1007E80088160130F4070318F50A0030F507750874
:1007F800803AFF0080307F02031D042C0830740209
:10080800031CE32B831203138812831603130816A1
:100818000330F000F00B0E2C8312031388160330FC
:10082800F000F00B152C003083120313081A013066
:10083800F200080083120313B900E830B700033050
:10084800B8001308B5003508B600302C08183D2C40
:100858002A2C88183D2C2D2C3908033A03192A2CE8
:10086800073A03192D2C3D2C3D2C0710452C8710D9
:10087800452C3908033A0319392C073A03193B2C3C
:10088800452C93018316031314185F2C8312370821
:10089800380403190800502C512C00000130831231
:1008A8000313B7020030031CB803B802462C071420
:1008B800682C8714682C83123908033A03195B2CB7
:1008C800073A03195D2C682C1308080083120313D8
:1008D800BF00C0013B088400831300080319AD2C36
:1008E8003B08840083130008BC003C08BD003B089B
:1008F800BC003C08B5003F080A128A117E230A1280
:100908008A11013083120313BC003C08BB07013075
:10091800BC003C08C007BE013D083E0203186E2C0F
:100928003B08BC003C08B5003F080A128A117E2328
:100938000A128A11013083120313BC003C08BB075A
:100948000130BC003C08C0070130BC003C08BE07B1
:10095800902C1E30400203180800742CFB00FD0187
:10096800FC017B08F9007907FA007A08FC007C088A
:100978000138F9007908FC000A128A11F9270A12CD
:100988008A117C080A128A11CE230A128A11FD01E3
:1009980078087D020318E42C00300A128A11DB2241
:1009A8000A128A11F9007D087707FA007A0884008C
:1009B8007908831380000130F9007908FD07CC2CF1
:1009C80001300A128A11DB220A128A11F9007D0805
:1009D8007707FA007A0884007908831380000A12DE
:1009E8008A11DE270800831203133D080319080043
:1009F800831203133B08B5003C08B6003F30BE0025
:100A08003E08B7000A128A119D250A128A1102307F
:100A180083120313BB070318BC0A0030BC07C201CA
:100A28000330420203182F2D42083F3E84008313EF
:100A38000008BE004D08A13E84003E088000013039
:100A4800BE003E08CD070130BE003E08C207033095
:100A58004202031C182D0130BD02F72C8312031328
:100A6800410803190800831203133F08B500400822
:100A7800B6004330C2004208B7000A128A11CC25DA
:100A88000A128A11033083120313BF070318C00A1E
:100A98000030C007C8010530480203186A2D48080D
:100AA800433E840083130008C2004D08A13E840021
:100AB800420880000130C2004208CD070130C20060
:100AC8004208C80705304802031C532D0130C102F3
:100AD800322D83120313C300B501B50A43080A1265
:100AE8008A117E230A128A11831203134108C20055
:100AF8004208B50043080A128A117E230A128A1195
:100B0800831203134108013EC2004208BB00430898
:100B18000A128A116A240A128A11831203134108DD
:100B28001F3EC2004208B50043080A128A117E23FC
:100B38000800023083120313B8003708840038080D
:100B480083138000350884008317361C831300083C
:100B5800B800840A0008B9003908BA00370A8400C6
:100B68003A0883138000013084000A128A15002095
:100B7800B800350884008317361C8313000838052D
:100B8800B9003708023E8400390883138000080042
:100B980083120313350884008317361C8313000857
:100BA800BA00840A0008BB00840A0008BC000430AC
:100BB800B80037088400380883138000BE01043069
:100BC8003E02031808003E083A3E84000008B800B8
:100BD8003E08013E3707B90039088400380880000C
:100BE8000130B8003808BE07E32D83120313370815
:100BF80003190800831203134D08A13E84008313D0
:100C08008001800A0130B8003808CD073508840013
:100C18008317361C83130008B8004D08A13E8400D2
:100C28003808831380000130B5070318B60A00306E
:100C3800B6070130B8003808CD070130B702F92DE2
:100C480083120313AC002A30A6002608A000023045
:100C5800A7002708A10000300A128A114F260A129D
:100C68008A1183120313A8002808A9002908031D64
:100C780008002A08A6002C08840026088313800090
:100C88000130A6002608AC072B08A6002C08840013
:100C980026088000080083120313A4002408A20079
:100CA8002208F70048300A128A11A5270A128A1169
:100CB80083120313A5012508031D742E2008A20022
:100CC8002208F7002108A3002308F80048300A1278
:100CD8008A11B2240A128A1183120313A501782EED
:100CE8000530A2002208A500250808000A128A116A
:100CF8006A270A128A1183120313C9004908831646
:100D08000313C9000A128A116A270A128A11831268
:100D18000313C900490883160313CA00C930C00069
:100D28000030C100023083120313C900490883163A
:100D38000313C200C301C30A0A128A11CA20080099
:100D480083120313B901BA01351CB02E3708B9074D
:100D58000318BA0A3808BA0701300310B70DB80DDE
:100D6800FF3E031DB12E01300310B60CB50CFF3E3B
:100D7800031DB82E35083604031DA82E3A08B60000
:100D88003908B500080083120313BC01B501B50A80
:100D980003300A128A117E230A128A1103300A12BA
:100DA8008A111E240A128A1183120313BB003B08FE
:100DB800BC003C08031D3C0A031DE62E05300A1240
:100DC8008A11EA26831203133C08080083120313CE
:100DD800B7000930B8000030B90038088400831320
:100DE80039188317370880004130B600EE30B50057
:100DF800B50BFC2EB60BFC2E00008312031338082B
:100E080084008313391883170330800008002F30BB
:100E18000A128A1124260A128A11831203132F0830
:100E2800AD00AE012D08F1002E08F2000A128A1159
:100E38004B270A128A11831203133008AD00AE0142
:100E48002D08F1002E08F2000A128A114B2708001B
:100E5800093083120313B7000030B8003708840044
:100E68008317381C831380014130B600EE30B5007B
:100E7800B50B3C2FB60B3C2F000083120313370829
:100E88008400831338188317013080000800710824
:100E980084008317721C831300080319652F7108D7
:100EA80084008317721C831300080A128A156F279F
:100EB8000A128A110130F1070318F20A0030F2070A
:100EC8004B2F00300A128A156F270800831203136C
:100ED800B501B601772F013083120313B507031844
:100EE800B60A0030B6078C1A842F3608803AFF00FD
:100EF80080307F02031D822F65303502031C6F2F5F
:100F0800831203131A080800831603138711871224
:100F180007160710871083120313941283160313FE
:100F280094138312031314128316031314138312D6
:100F380003139411141194101410071487149416A1
:100F48000800FA00FB017A08F8007807F900790828
:100F5800FB000A128A11F9270A128A117B080A1261
:100F68008A11CE230A128A1177080A128A11CE230F
:100F78000A128A110A128A11DE2708008312031343
:100F8800C7004408C600460883160313A00083124E
:100F980003134508C600460883160313BF00A03094
:100FA80083120313C6004608C10047080A128A11B3
:100FB8006D250800831203138812E22FE32F000027
:100FC80083120313081283160313081283120313E0
:100FD8008816EE2FEF2F0000831203130816103027
:100FE800F000F00BF52F000008008312031308121D
:100FF800831603130812080008308A000408840ABC
:0810080082070034FF340034BC
:101EC8000B178B1708000B138B13080083160313CB
:101ED800081488140800F000831203130C1E702FD6
:101EE80070089900080083120313B5000C1E7A2F9E
:101EF80035089900080064008001840A0406031963
:101F080000340406802F8316031387178130990045
:101F18002430980090308312031398000800831629
:101F280003138812831203138816831603130816E3
:101F38008312031308160800013083160313C00028
:101F48000030C100C201C20AC301C30A0A128A11C1
:101F5800CA20080083120313B501B50A04300A1217
:101F68008A117E230A128A1583120313881808001F
:101F780006300A128A11EA26080009308312031370
:101F8800B5000030B60083160313891009108312B8
:101F98000313350884008313361883170330800031
:101FA80008008C1EDD2F0C080A128A110B270A1252
:101FB8008A15831203133408FF0033088A00320895
:101FC8008400310E8300FE0E7E0E09008316031373
:101FD8000815093083120313B5000030B6008316C4
:101FE800031309108312031335088400831336186A
:081FF80083170130800008008E
:02400E0072FF3F
:00000001FF
